:020000040800F2
:100000000000022091080008190800081F080008D5
:10001000250800082B08000831080008000000002F
:100020000000000000000000000000003708000889
:100030004508000800000000530800086108000897
:10004000E1080008E1080008E1080008E1080008EC
:10005000E1080008E1080008E1080008E1080008DC
:10006000E1080008E1080008E1080008E1080008CC
:10007000E1080008E1080008E1080008E1080008BC
:10008000E1080008E1080008E1080008E1080008AC
:10009000E1080008E1080008E1080008E10800089C
:1000A000E1080008E1080008E1080008E10800088C
:1000B000E1080008E1080008E1080008E10800087C
:1000C000E1080008E1080008E1080008E10800086C
:1000D000E1080008E1080008E1080008E10800085C
:1000E000E1080008E1080008E1080008E10800084C
:1000F000E1080008E1080008E1080008E10800083C
:10010000E1080008E1080008E1080008E10800082B
:10011000E1080008E1080008E1080008E10800081B
:10012000E1080008E1080008E1080008E10800080B
:10013000E10800080000000000000000E1080008DD
:10014000E1080008E1080008E1080008E1080008EB
:10015000E1080008E1080008E1080008E1080008DB
:10016000E1080008E1080008E1080008E1080008CB
:10017000E1080008E1080008E108000800000000AC
:1001800000000000E108000800000000000000007E
:10019000E10800080000000000000000E10800087D
:1001A000000000000000000000000000E10800085E
:1001B000E1080008E1080008E1080008E10800087B
:0401C000E10800084A
:1001C40010B5054C237833B9044B13B10448AFF38D
:1001D40000800123237010BD0C00002000000000EB
:1001E4009C20000808B5034B1BB103490348AFF337
:1001F400008008BD00000000100000209C200008C2
:1002040053B94AB9002908BF00281CBF4FF0FF3179
:100214004FF0FF3000F074B9ADF1080C6DE904CE75
:1002240000F006F8DDF804E0DDE9022304B07047CD
:100234002DE9F047089D04468E46002B4DD18A4295
:10024400944669D9B2FA82F252B101FA02F3C2F1C8
:10025400200120FA01F10CFA02FC41EA030E944059
:100264004FEA1C48210CBEFBF8F61FFA8CF708FB7A
:1002740016E341EA034306FB07F199420AD91CEB52
:10028400030306F1FF3080F01F81994240F21C8184
:10029400023E63445B1AA4B2B3FBF8F008FB1033CC
:1002A40044EA034400FB07F7A7420AD91CEB040401
:1002B40000F1FF3380F00A81A74240F207816444D1
:1002C400023840EA0640E41B00261DB1D440002356
:1002D400C5E900433146BDE8F0878B4209D9002DBA
:1002E40000F0EF800026C5E9000130463146BDE844
:1002F400F087B3FA83F6002E4AD18B4202D38242AE
:1003040000F2F980841A61EB030301209E46002D5C
:10031400E0D0C5E9004EDDE702B9FFDEB2FA82F2B1
:10032400002A40F09280A1EB0C014FEA1C471FFA0F
:100334008CFE0126200CB1FBF7F307FB131140EAF6
:1003440001410EFB03F0884208D91CEB010103F1C3
:10035400FF3802D2884200F2CB804346091AA4B285
:10036400B1FBF7F007FB101144EA01440EFB00FE59
:10037400A64508D91CEB040400F1FF3102D2A645BE
:1003840000F2BB800846A4EB0E0440EA03409CE75D
:10039400C6F12007B34022FA07FC4CEA030C20FA0A
:1003A40007F401FA06F31C43F9404FEA1C4900FA2A
:1003B40006F3B1FBF9F8200C1FFA8CFE09FB1811A7
:1003C40040EA014108FB0EF0884202FA06F20BD91A
:1003D4001CEB010108F1FF3A80F08880884240F26A
:1003E4008580A8F102086144091AA4B2B1FBF9F0AE
:1003F40009FB101144EA014100FB0EFE8E4508D9A9
:100404001CEB010100F1FF346CD28E456AD902382D
:10041400614440EA0840A0FB0294A1EB0E01A14212
:10042400C846A64656D353D05DB1B3EB080261EB80
:100434000E0101FA07F722FA06F3F1401F43C5E95A
:10044400007100263146BDE8F087C2F12003D84090
:100454000CFA02FC21FA03F3914001434FEA1C47D2
:100464001FFA8CFEB3FBF7F007FB10360B0C43EAC4
:10047400064300FB0EF69E4204FA02F408D91CEB74
:10048400030300F1FF382FD29E422DD90238634472
:100494009B1B89B2B3FBF7F607FB163341EA034112
:1004A40006FB0EF38B4208D91CEB010106F1FF3861
:1004B40016D28B4214D9023E6144C91A46EA004658
:1004C40038E72E46284605E70646E3E61846F8E6EA
:1004D4004B45A9D2B9EB020864EB0C0E0138A3E733
:1004E4004646EAE7204694E74046D1E7D0467BE714
:1004F400023B614432E7304609E76444023842E78C
:10050400704700BF80B500AF01F028FD00F006F889
:1005140000F09CF800F070F8FEE7000080B594B09D
:1005240000AF07F11C0334220021184601F0ACFD92
:1005340007F1080300221A605A609A60DA601A61AF
:1005440000237B602A4B1B6C294A43F080531364BD
:10055400274B1B6C03F080537B607B6800233B605C
:10056400244B1B6823F44043224A43F48043136022
:10057400204B1B6803F440433B603B680223FB6150
:100584000123BB621023FB6202237B630023BB6352
:100594001023FB634FF4A8733B6404237B6402239E
:1005A400BB640223FB6407F11C03184600F05CFEE5
:1005B4000346002B01D000F0B7F80F23BB600223E1
:1005C400FB6000233B614FF480537B610023BB61DC
:1005D40007F108030221184601F0E4F80346002B52
:1005E40001D000F0A1F800BF5037BD4680BD00BF68
:1005F400003802400070004080B500AF114B124A31
:100604001A60104B4FF4E1325A600E4B00229A608C
:100614000C4B0022DA600B4B00221A61094B0C22AE
:100624005A61084B00229A61064B0022DA610548A0
:1006340001F0D2F90346002B01D000F075F800BF99
:1006440080BD00BF280000200044004080B58AB06F
:1006540000AF07F1140300221A605A609A60DA604E
:100664001A6100233B612D4B1B6B2C4A43F004039E
:1006740013632A4B1B6B03F004033B613B690023A8
:10068400FB60264B1B6B254A43F080031363234B0B
:100694001B6B03F08003FB60FB680023BB601F4BF4
:1006A4001B6B1E4A43F0010313631C4B1B6B03F0CB
:1006B4000103BB60BB6800237B60184B1B6B174AAC
:1006C40043F002031363154B1B6B03F002037B60BF
:1006D4007B6800222021124800F07CFB4FF4005379
:1006E4007B614FF40413BB610023FB6107F1140326
:1006F40019460C4800F0DAF920237B610123BB6121
:100704000023FB6100233B6207F1140319460448EC
:1007140000F0CCF900BF2837BD4680BD0038024048
:10072400000002400008024080B400AF72B600BF6F
:10073400FEE7000080B582B000AF00237B60104B61
:100744005B6C0F4A43F4804353640D4B5B6C03F4BE
:1007540080437B607B6800233B60094B1B6C084A29
:1007640043F080531364064B1B6C03F080533B60CF
:100774003B68072000F066F900BF0837BD4680BD1E
:100784000038024080B58AB000AF786007F11403E6
:1007940000221A605A609A60DA601A617B681B68EA
:1007A400194A93422BD100233B61184B1B6C174A07
:1007B40043F400331364154B1B6C03F400333B61A7
:1007C4003B690023FB60114B1B6B104A43F0010390
:1007D40013630E4B1B6B03F00103FB60FB680C23DC
:1007E4007B610223BB610023FB6103233B6207237C
:1007F4007B6207F114031946054800F057F900BF5E
:100804002837BD4680BD00BF004400400038024088
:100814000000024080B400AFFEE780B400AFFEE702
:1008240080B400AFFEE780B400AFFEE780B400AF51
:10083400FEE780B400AF00BFBD465DF8047B70479F
:1008440080B400AF00BFBD465DF8047B704780B440
:1008540000AF00BFBD465DF8047B704780B500AFB4
:1008640001F0CEFB00BF80BD80B400AF064BD3F8CF
:100874008830054A43F47003C2F8883000BFBD468F
:100884005DF8047B704700BF00ED00E0DFF834D072
:100894000D480E490E4A002302E0D458C4500433D4
:1008A400C4188C42F9D30B4A0B4C002301E01360AB
:1008B4000432A242FBD3FFF7D7FF01F0C1FBFFF7DD
:1008C40021FE704700000220000000200C000020E0
:1008D400DC2000080C00002070000020FEE700006F
:1008E40080B485B000AF78607B6803F00703FB60D9
:1008F4000C4BDB68BB60BA684FF6FF031340BB6068
:10090400FB681A02BB68134343F0BF6343F400332C
:10091400BB60044ABB68D36000BF1437BD465DF8B2
:10092400047B704700ED00E080B400AF044BDB684B
:100934001B0A03F007031846BD465DF8047B7047A5
:1009440000ED00E080B483B000AF03463960FB7172
:1009540097F90730002B0ADB3B68DAB20C4997F9A8
:1009640007301201D2B20B4483F800230AE03B683B
:10097400DAB20849FB7903F00F03043B1201D2B247
:100984000B441A7600BF0C37BD465DF8047B7047F4
:1009940000E100E000ED00E080B489B000AFF86051
:1009A400B9607A60FB6803F00703FB61FB69C3F17C
:1009B4000703042B28BF0423BB61FB690433062B04
:1009C40002D9FB69033B00E000237B614FF0FF3257
:1009D400BB6902FA03F3DA43BB681A407B699A40A5
:1009E4004FF0FF317B6901FA03F3D9437B680B4075
:1009F400134318462437BD465DF8047B7047000056
:100A040080B582B000AF78607B68013BB3F1807F32
:100A140001D301230FE00A4A7B68013B53600F2195
:100A24004FF0FF30FFF78EFF054B00229A60044B16
:100A340007221A60002318460837BD4680BD00BF50
:100A440010E000E080B582B000AF78607868FFF70E
:100A540047FF00BF0837BD4680BD80B586B000AFF4
:100A64000346B9607A60FB7300237B61FFF75CFF88
:100A740078617A68B9687869FFF78EFF024697F95A
:100A84000F3011461846FFF75DFF00BF1837BD460B
:100A940080BD80B582B000AF78607868FFF7B0FFA2
:100AA400034618460837BD4680BD000080B489B0AF
:100AB40000AF7860396000237B6100233B61002331
:100AC400BB610023FB6165E10122FB6902FA03F3C8
:100AD4007B613B681B687A6913403B613A697B69B7
:100AE4009A4240F054813B685B6803F00303012B96
:100AF40005D03B685B6803F00303022B30D17B68AD
:100B04009B68BB61FB695B00032202FA03F3DB43CE
:100B1400BA691340BB613B68DA68FB695B0002FA9F
:100B240003F3BA691343BB617B68BA699A607B6853
:100B34005B68BB610122FB6902FA03F3DB43BA6918
:100B44001340BB613B685B681B0903F00102FB694E
:100B540002FA03F3BA691343BB617B68BA695A604A
:100B64003B685B6803F00303032B17D07B68DB68E7
:100B7400BB61FB695B00032202FA03F3DB43BA693E
:100B84001340BB613B689A68FB695B0002FA03F39C
:100B9400BA691343BB617B68BA69DA603B685B6816
:100BA40003F00303022B23D1FB69DA087B680832C4
:100BB40053F82230BB61FB6903F007039B000F224B
:100BC40002FA03F3DB43BA691340BB613B681A6959
:100BD400FB6903F007039B0002FA03F3BA691343AA
:100BE400BB61FB69DA087B680832B96943F82210F3
:100BF4007B681B68BB61FB695B00032202FA03F399
:100C0400DB43BA691340BB613B685B6803F00302D2
:100C1400FB695B0002FA03F3BA691343BB617B68A7
:100C2400BA691A603B685B6803F44033002B00F038
:100C3400AE800023FB605D4B5B6C5C4A43F48043F5
:100C440053645A4B5B6C03F48043FB60FB68584A63
:100C5400FB699B08023352F82330BB61FB6903F044
:100C640003039B000F2202FA03F3DB43BA69134028
:100C7400BB617B684F4A934225D07B684E4A9342BE
:100C84001FD07B684D4A934219D07B684C4A9342EB
:100C940013D07B684B4A93420DD07B684A4A9342F7
:100CA40007D07B68494A934201D106230CE007230D
:100CB4000AE0052308E0042306E0032304E00223FA
:100CC40002E0012300E00023FA6902F0030292002B
:100CD4009340BA691343BB613549FB699B080233EE
:100CE400BA6941F823203A4B9B68BB613B69DB43FB
:100CF400BA691340BB613B685B6803F48013002B43
:100D040003D0BA693B691343BB61314ABB69936041
:100D14002F4BDB68BB613B69DB43BA691340BB61A2
:100D24003B685B6803F40013002B03D0BA693B698A
:100D34001343BB61264ABB69D360254B5B68BB6127
:100D44003B69DB43BA691340BB613B685B6803F4EE
:100D54000033002B03D0BA693B691343BB611C4ABF
:100D6400BB6953601A4B1B68BB613B69DB43BA69BF
:100D74001340BB613B685B6803F48033002B03D0F2
:100D8400BA693B691343BB61114ABB691360FB69D0
:100D94000133FB61FB690F2B7FF696AE00BF00BFEA
:100DA4002437BD465DF8047B704700BF003802401D
:100DB40000380140000002400004024000080240E4
:100DC400000C0240001002400014024000180240CF
:100DD400003C014080B483B000AF78600B467B8058
:100DE40013467B707B78002B03D07A887B689A61EA
:100DF40003E07B881A047B689A6100BF0C37BD4608
:100E04005DF8047B704700002DE9B04FAEB000AF31
:100E14000023C7F8AC300023C7F8B4300023C7F868
:100E2400A8300023C7F8A4300023C7F8B030CB4B58
:100E34009B6803F00C030C2B00F2068201A252F80B
:100E440023F000BF7D0E00084D1200084D1200086B
:100E54004D120008850E00084D1200084D120008BE
:100E64004D1200088D0E00084D1200084D120008A6
:100E74004D1200087D100008B94BC7F8B030E7E107
:100E8400B84BC7F8B030E3E1B44B5B6803F03F0301
:100E9400C7F8AC30B14B5B6803F48003002B71D00E
:100EA400AE4B5B689B090022C7F89830C7F89C20BA
:100EB400D7F89830C3F30803C7F890300023C7F875
:100EC4009430D7E9244522462B464FF000004FF0DA
:100ED4000001590141EAD261500102460B46214604
:100EE400511A3964294663EB01037B644FF0000215
:100EF4004FF00003D7E9108949468B01414643EA84
:100F0400916341468A014146511AB963494663EBEC
:100F14000103FB634FF000024FF00003D7E90E8991
:100F24004946CB00414643EA51734146CA00104644
:100F34001946034622469B183B632B460A4642EB5E
:100F440003037B634FF000024FF00003D7E90C4525
:100F540029464B02214643EAD15321464A02104610
:100F64001946D7F8AC300022C7F88830C7F88C206F
:100F7400D7E92223FFF744F902460B461346C7F884
:100F8400B43067E0754B5B689B090022C7F880307A
:100F9400C7F88420D7F88030C3F30803BB67002365
:100FA400FB67D7E91E4522462B464FF000004FF061
:100FB4000001590141EAD261500102460B46214623
:100FC400511AB962294663EB0103FB624FF0000238
:100FD4004FF00003D7E90A8949468B01414643EAA9
:100FE400916341468A014146B2EB010A494663EBEB
:100FF400010B4FF000024FF000034FEACB0343EA2A
:101004005A734FEACA0292469B4623461AEB0303DD
:101014003B622B464BEB03037B624FF000024FF025
:101024000003D7E9084529468B02214643EA915338
:1010340021468A0210461946D7F8AC3000223B6795
:101044007A67D7E91C23FFF7DBF802460B46134601
:10105400C7F8B430414B5B681B0C03F00303013346
:101064005B00C7F8A830D7F8B420D7F8A830B2FB93
:10107400F3F3C7F8B030EBE0384B5B6803F03F03A1
:10108400C7F8AC30354B5B6803F48003002B6BD09E
:10109400324B5B689B090022BB66FA66BB6EC3F3E6
:1010A40008033B6600237B66D7E9184522462B4696
:1010B4004FF000004FF00001590141EAD2615001A4
:1010C40002460B462146511AB961294663EB0103D6
:1010D400FB614FF000024FF00003D7E906AB59461D
:1010E4008B01514643EA916351468A015146B2EB62
:1010F4000108594663EB01094FF000024FF0000369
:101104004FEAC90343EA58734FEAC8029046994626
:10111400234618EB03033B612B4649EB03037B6136
:101124004FF000024FF00003D7E9044529464B0273
:10113400214643EAD15321464A0210461946D7F8BC
:10114400AC300022BB65FA65D7E91623FFF758F8DF
:1011540002460B461346C7F8B43065E00038024037
:101164000024F40000127A003D4B5B689B090022C6
:1011740018461146C0F308033B6500237B65D7E995
:10118400148942464B464FF000004FF000015901CC
:1011940041EAD261500102460B464146511AB960F8
:1011A400494663EB0103FB604FF000024FF000037C
:1011B400D7E902AB59468B01514643EA9163514644
:1011C4008A015146541A594663EB01054FF0000257
:1011D4004FF00003EB0043EA5473E20014461D464B
:1011E4004346E3183B604B4645EB03037B604FF0FB
:1011F40000024FF00003D7E9004529468B0221463F
:1012040043EA915321468A0210461946D7F8AC3076
:101214000022BB64FA64D7E91223FEF7F1FF024609
:101224000B461346C7F8B4300D4B5B681B0F03F035
:101234000703C7F8A430D7F8B420D7F8A430B2FB1A
:10124400F3F3C7F8B03003E0064BC7F8B03000BF83
:10125400D7F8B0301846B837BD46BDE8B08F00BFE8
:10126400003802400024F40080B586B000AF7860F6
:101274007B68002B01D101238DE27B681B6803F09E
:101284000103002B00F08380944B9B6803F00C0354
:10129400042B19D0914B9B6803F00C03082B06D147
:1012A4008E4B5B6803F48003B3F5800F0CD08B4B3B
:1012B4009B6803F00C030C2B12D1884B5B6803F47E
:1012C4008003B3F5800F0BD1844B1B6803F4003308
:1012D400002B5BD07B685B68002B57D101235AE25B
:1012E4007B685B68B3F5803F06D17C4B1B687B4A07
:1012F40043F4803313601DE07B685B68B3F5A02F73
:101304000CD1764B1B68754A43F480231360734BEE
:101314001B68724A43F4803313600BE06F4B1B6805
:101324006E4A23F4803313606C4B1B686B4A23F4BE
:10133400802313607B685B68002B13D000F074FE7D
:10134400386108E000F070FE02463B69D31A642B52
:1013540001D903231FE2614B1B6803F40033002B04
:10136400F0D014E000F060FE386108E000F05CFEAC
:1013740002463B69D31A642B01D903230BE2574B72
:101384001B6803F40033002BF0D100E000BF7B683E
:101394001B6803F00203002B6FD0504B9B6803F0D3
:1013A4000C03002B17D04D4B9B6803F00C03082B48
:1013B40005D14A4B5B6803F48003002B0BD0474BE9
:1013C4009B6803F00C030C2B1CD1444B5B6803F4A7
:1013D4008003002B16D1414B1B6803F00203002B42
:1013E40005D07B68DB68012B01D00123D3E13B4BA3
:1013F4001B6823F0F8027B681B69DB003749134341
:101404000B603AE07B68DB68002B20D0344B012270
:101414001A6000F009FE386108E000F005FE02469B
:101424003B69D31A022B01D90323B4E12B4B1B686C
:1014340003F00203002BF0D0284B1B6823F0F802C2
:101444007B681B69DB00254913430B6015E0244BC3
:1014540000221A6000F0E8FD386108E000F0E4FDC5
:1014640002463B69D31A022B01D9032393E11B4B98
:101474001B6803F00203002BF0D17B681B6803F0A8
:101484000803002B36D07B685B69002B16D0154B04
:1014940001221A6000F0C8FD386108E000F0C4FDC4
:1014A40002463B69D31A022B01D9032373E10B4B88
:1014B4005B6F03F00203002BF0D01BE0094B00220A
:1014C4001A6000F0B1FD38610EE000F0ADFD024697
:1014D4003B69D31A022B07D903235CE1003802408D
:1014E40000004742800E47428A4B5B6F03F00203C1
:1014F400002BEAD17B681B6803F00403002B00F087
:1015040097800023FB75834B1B6C03F08053002BE7
:101514000FD10023BB607F4B1B6C7E4A43F080538A
:1015240013647C4B1B6C03F08053BB60BB680123CA
:10153400FB75794B1B6803F48073002B18D1764B31
:101544001B68754A43F48073136000F06DFD3861C5
:1015540008E000F069FD02463B69D31A022B01D969
:10156400032318E16C4B1B6803F48073002BF0D049
:101574007B689B68012B06D1664B1B6F654A43F061
:10158400010313671CE07B689B68052B0CD1614B3E
:101594001B6F604A43F0040313675E4B1B6F5D4A85
:1015A40043F0010313670BE05A4B1B6F594A23F0B6
:1015B40001031367574B1B6F564A23F00403136749
:1015C4007B689B68002B15D000F02EFD38610AE083
:1015D40000F02AFD02463B69D31A41F28832934255
:1015E40001D90323D7E04B4B1B6F03F00203002BFD
:1015F400EED014E000F018FD38610AE000F014FDAC
:1016040002463B69D31A41F28832934201D903233B
:10161400C1E0404B1B6F03F00203002BEED1FB7DB6
:10162400012B05D13B4B1B6C3A4A23F080531364C6
:101634007B689B69002B00F0AD80364B9B6803F000
:101644000C03082B60D07B689B69022B45D1334B7C
:1016540000221A6000F0E8FC386108E000F0E4FCC5
:1016640002463B69D31A022B01D9032393E0294B89
:101674001B6803F00073002BF0D17B68DA697B6888
:101684001B6A1A437B685B6A9B011A437B689B6AEB
:101694005B08013B1B041A437B68DB6A1B061A4385
:1016A4007B681B6B1B071B4913434B601B4B0122BD
:1016B4001A6000F0B9FC386108E000F0B5FC02469D
:1016C4003B69D31A022B01D9032364E0114B1B6835
:1016D40003F00073002BF0D05CE0104B00221A6082
:1016E40000F0A2FC386108E000F09EFC02463B6971
:1016F400D31A022B01D903234DE0064B1B6803F0D8
:101704000073002BF0D145E07B689B69012B07D166
:10171400012340E00038024000700040600047426E
:101724001F4B5B68FB607B689B69012B30D0FB68B7
:1017340003F480027B68DB699A4229D1FB6803F0D9
:101744003F027B681B6A9A4222D1FA6847F6C0734B
:1017540013407A68526A9201934219D1FB6803F4E8
:1017640040327B689B6A5B08013B1B049A420FD1A1
:10177400FB6803F070627B68DB6A1B069A4207D140
:10178400FB6803F0E0427B681B6B1B079A4201D0A5
:10179400012300E0002318461837BD4680BD00BF72
:1017A4000038024080B584B000AF786039607B684F
:1017B400002B01D10123CCE0684B1B6803F00F031D
:1017C4003A689A420CD9654B3A68D2B21A70634BA4
:1017D4001B6803F00F033A689A4201D00123B8E072
:1017E4007B681B6803F00203002B20D07B681B6816
:1017F40003F00403002B05D0594B9B68584A43F46B
:10180400E05393607B681B6803F00803002B05D04A
:10181400534B9B68524A43F460439360504B9B681C
:1018240023F0F0027B689B684D4913438B607B680F
:101834001B6803F00103002B44D07B685B68012B19
:1018440007D1474B1B6803F40033002B19D1012344
:101854007FE07B685B68022B03D07B685B68032BAB
:1018640007D13F4B1B6803F00073002B09D1012300
:101874006FE03B4B1B6803F00203002B01D10123F3
:1018840067E0374B9B6823F003027B685B6834494D
:1018940013438B6000F0C8FBF8600AE000F0C4FB5F
:1018A4000246FB68D31A41F28832934201D90323DA
:1018B4004FE02B4B9B6803F00C027B685B689B003A
:1018C4009A42EBD1254B1B6803F00F033A689A4206
:1018D4000CD2224B3A68D2B21A70204B1B6803F028
:1018E4000F033A689A4201D0012332E07B681B68F7
:1018F40003F00403002B08D0194B9B6823F4E05237
:101904007B68DB68164913438B607B681B6803F0B4
:101914000803002B09D0124B9B6823F460427B68B8
:101924001B69DB000E4913438B60FFF76DFA024617
:101934000B4B9B681B0903F00F030A49CB5C22FA8B
:1019440003F3094A1360094B1B68184600F028FB8F
:10195400002318461037BD4680BD00BF003C02403E
:1019640000380240B42000080000002004000020D9
:1019740080B400AF034B1B681846BD465DF8047B7A
:10198400704700BF0000002080B500AFFFF7F0FFF4
:101994000246054B9B689B0A03F007030349CB5C93
:1019A40022FA03F3184680BD00380240C420000820
:1019B40080B500AFFFF7DCFF0246054B9B685B0B6D
:1019C40003F007030349CB5C22FA03F3184680BDF6
:1019D40000380240C420000880B582B000AF7860AF
:1019E4007B68002B01D101233FE07B6893F83D30F5
:1019F400DBB2002B06D17B68002283F83C20786898
:101A0400FEF7C0FE7B68242283F83D207B681B68B8
:101A1400DA687B681B6822F40052DA60786800F0A8
:101A240029F87B681B681A697B681B6822F490425A
:101A34001A617B681B685A697B681B6822F02A025A
:101A44005A617B681B68DA687B681B6842F4005241
:101A5400DA607B6800221A647B68202283F83D20C8
:101A64007B68202283F83E20002318460837BD46B1
:101A740080BD00002DE9B04FC0B000AFC7F8F4003E
:101A8400D7F8F4301B681B6923F44050D7F8F430BE
:101A9400D968D7F8F4301A6840EA01031361D7F81B
:101AA400F4309A68D7F8F4301B691A43D7F8F43045
:101AB4005B691A43D7F8F430DB691343C7F8F8308D
:101AC400D7F8F4301B68DB6823F4164121F00C01CD
:101AD400D7F8F4301A68D7F8F8300B43D360D7F846
:101AE400F4301B685B6923F44070D7F8F4309969CB
:101AF400D7F8F4301A6840EA01035361D7F8F43098
:101B04001A688F4B9A4205D0D7F8F4301A688D4B77
:101B14009A4204D1FFF74CFFC7F8FC0003E0FFF73B
:101B240033FFC7F8FC00D7F8F430DB69B3F5004F96
:101B340040F00C81D7F8FC300022C7F8E830C7F831
:101B4400EC20D7E93A4522462B469118B9655B410A
:101B5400FB65D7E91623214612EB0108294643EB1E
:101B640001094FF000024FF000034FEAC90343EAB2
:101B740058734FEAC80290469946234618EB03036C
:101B8400C7F8E0302B4649EB0303C7F8E430D7F835
:101B9400F4305B680022C7F8D830C7F8DC20D7E9F6
:101BA40036120B46DB183B65134642EB03037B6599
:101BB400D7E91423D7E93801FEF722FB02460B4686
:101BC400614BA3FB02235B091C01D7F8FC30002204
:101BD400C7F8D030C7F8D420D7E9348942464B46F9
:101BE4009118B9645B41FB64D7E91223414612EBB7
:101BF400010A494643EB010B4FF000024FF000038A
:101C04004FEACB0343EA5A734FEACA0292469B4611
:101C140043461AEB0303C7F8C8304B464BEB0303A8
:101C2400C7F8CC30D7F8F4305B680022C7F8C0306E
:101C3400C7F8C420D7E930120B46DB183B641346BF
:101C440042EB03037B64D7E91023D7E93201FEF7A3
:101C5400D7FA02460B4611463B4BA3FB01235B0913
:101C6400642202FB03F3CB1ADB0003F13202364B8E
:101C7400A3FB02235B095B0003F4F8731C44D7F84D
:101C8400FC300022C7F8B830C7F8BC20D7E92E8949
:101C940042464B469118B9635B41FB63D7E90E2377
:101CA40041465118396349464B417B634FF000026A
:101CB4004FF00003D7E90CAB5946CB00514643EA39
:101CC40051735146CA0010461946034642469B18B2
:101CD400C7F8B0304B460A4642EB0303C7F8B430AA
:101CE400D7F8F4305B680022C7F8A830C7F8AC20F6
:101CF400D7E92A120B46DB18BB62134642EB0303F7
:101D0400FB62D7E90A23D7E92C01FEF779FA0246E8
:101D14000B460D4BA3FB02135B09642101FB03F388
:101D2400D31ADB003233084AA2FB03235B0903F016
:101D34000702D7F8F4301B6822449A6005E100BF1B
:101D440000100140001401401F85EB51D7F8FC300E
:101D54000022C7F8A030C7F8A420D7E92889424652
:101D64004B46911839625B417B62D7E908234146AF
:101D74005418494643EB01054FF000024FF00003AD
:101D8400EB0043EA5473E20014461D464346E3184D
:101D9400C7F898304B4645EB0303C7F89C30D7F897
:101DA400F4305B680022C7F89030C7F894204FF0F5
:101DB40000024FF00003D7E9244529468B00214651
:101DC40043EA917321468A00D7E92601FEF718FAFF
:101DD40002460B46604BA3FB02235B091C01D7F8A8
:101DE400FC300022C7F88830C7F88C20D7E9228954
:101DF40042464B469118B9615B41FB61D7E9062322
:101E040041465118396149464B417B614FF000020C
:101E14004FF00003D7E904AB5946CB00514643EADF
:101E240051735146CA0010461946034642469B1850
:101E3400C7F880304B460A4642EB0303C7F88430A8
:101E4400D7F8F4305B680022BB67FA674FF00002F2
:101E54004FF00003D7E91E8949468B00414643EA07
:101E6400917341468A00D7E92001FEF7C9F9024679
:101E74000B46394BA3FB02135B09642101FB03F3FB
:101E8400D31A1B013233344AA2FB03235B0903F048
:101E9400F0031C44D7F8FC3000223B677A67D7E98B
:101EA4001C8942464B469118B9605B41FB60D7E9F7
:101EB400022341465118396049464B417B604FF03B
:101EC40000024FF00003D7E900AB5946CB0051465E
:101ED40043EA51735146CA00104619460346424626
:101EE4009B18BB664B460A4642EB0303FB66D7F8D6
:101EF400F4305B6800223B667A664FF000024FF0D4
:101F04000003D7E9188949468B00414643EA917397
:101F140041468A00D7E91A01FEF772F902460B46D8
:101F24000D4BA3FB02135B09642101FB03F3D31ADA
:101F34001B013233084AA2FB03235B0903F00F029F
:101F4400D7F8F4301B6822449A6000BF07F5807705
:101F5400BD46BDE8B08F00BF1F85EB5180B500AF13
:101F64000E4B1B680D4A43F4007313600B4B1B6844
:101F74000A4A43F480631360084B1B68074A43F41E
:101F8400807313600320FEF75DFD002000F008F865
:101F9400FEF7D0FB0023184680BD00BF003C024082
:101FA40080B582B000AF7860124B1A68124B1B7870
:101FB40019464FF47A73B3FBF1F3B2FBF3F318460B
:101FC400FEF767FD0346002B01D001230EE07B687A
:101FD4000F2B0AD8002279684FF0FF30FEF73DFD41
:101FE400064A7B681360002300E001231846083783
:101FF400BD4680BD00000020080000200400002031
:1020040080B400AF064B1B781A46064B1B6813447A
:10201400044A136000BFBD465DF8047B704700BFEF
:10202400080000206C00002080B400AF034B1B6844
:102034001846BD465DF8047B704700BF6C00002065
:1020440070B50D4D0D4C641BA4100026A64209D199
:102054000B4D0C4C00F020F8641BA4100026A64283
:1020640005D170BD55F8043B98470136EEE755F8A5
:10207400043B98470136F2E7D4200008D420000836
:10208400D4200008D820000802440346934200D11B
:10209400704703F8011BF9E7F8B500BFF8BC08BCAA
:1020A4009E467047F8B500BFF8BC08BC9E46704712
:1020B40000000000000000000102030406070809F4
:0820C40000000000010203040A
:0820CC0068E1FF7F0100000044
:0420D400E901000816
:0420D800C501000836
:0C20DC000024F4001000000001000000CF
:040000050800089156
:00000001FF
